{
   "_format": "hh-sol-artifact-1",
   "contractName": "SwapChain",
   "sourceName": "contracts/SwapChain.sol",
   "abi": [
      {
         "inputs": [
            {
               "internalType": "address",
               "name": "utilsAddr",
               "type": "address"
            },
            {
               "internalType": "address",
               "name": "valueToken",
               "type": "address"
            },
            {
               "internalType": "address",
               "name": "matchDynamicArray",
               "type": "address"
            }
         ],
         "stateMutability": "nonpayable",
         "type": "constructor"
      },
      {
         "anonymous": false,
         "inputs": [
            {
               "components": [
                  {
                     "internalType": "address",
                     "name": "_userFirst",
                     "type": "address"
                  },
                  {
                     "internalType": "uint256",
                     "name": "_valueOfFirstUser",
                     "type": "uint256"
                  },
                  {
                     "internalType": "address",
                     "name": "_userSecond",
                     "type": "address"
                  },
                  {
                     "internalType": "uint256",
                     "name": "_valueOfSecondUser",
                     "type": "uint256"
                  },
                  {
                     "internalType": "bool",
                     "name": "_approvedByFirstUser",
                     "type": "bool"
                  },
                  {
                     "internalType": "bool",
                     "name": "_approvedBySecondUser",
                     "type": "bool"
                  }
               ],
               "indexed": false,
               "internalType": "struct Match[]",
               "name": "matches",
               "type": "tuple[]"
            }
         ],
         "name": "Matches",
         "type": "event"
      },
      {
         "inputs": [
            {
               "components": [
                  {
                     "internalType": "address",
                     "name": "_userFirst",
                     "type": "address"
                  },
                  {
                     "internalType": "uint256",
                     "name": "_valueOfFirstUser",
                     "type": "uint256"
                  },
                  {
                     "internalType": "address",
                     "name": "_userSecond",
                     "type": "address"
                  },
                  {
                     "internalType": "uint256",
                     "name": "_valueOfSecondUser",
                     "type": "uint256"
                  },
                  {
                     "internalType": "bool",
                     "name": "_approvedByFirstUser",
                     "type": "bool"
                  },
                  {
                     "internalType": "bool",
                     "name": "_approvedBySecondUser",
                     "type": "bool"
                  }
               ],
               "internalType": "struct Match",
               "name": "subj",
               "type": "tuple"
            }
         ],
         "name": "approveSwap",
         "outputs": [],
         "stateMutability": "nonpayable",
         "type": "function"
      },
      {
         "inputs": [],
         "name": "approveSwapNoParams",
         "outputs": [],
         "stateMutability": "nonpayable",
         "type": "function"
      },
      {
         "inputs": [
            {
               "internalType": "address",
               "name": "user",
               "type": "address"
            }
         ],
         "name": "getDemandsByUser",
         "outputs": [
            {
               "internalType": "string[]",
               "name": "",
               "type": "string[]"
            }
         ],
         "stateMutability": "view",
         "type": "function"
      },
      {
         "inputs": [
            {
               "internalType": "string",
               "name": "demand",
               "type": "string"
            }
         ],
         "name": "getTokensByIndex",
         "outputs": [
            {
               "internalType": "uint256[]",
               "name": "",
               "type": "uint256[]"
            }
         ],
         "stateMutability": "view",
         "type": "function"
      },
      {
         "inputs": [
            {
               "internalType": "address",
               "name": "user",
               "type": "address"
            },
            {
               "internalType": "string",
               "name": "demand",
               "type": "string"
            }
         ],
         "name": "registerDemand",
         "outputs": [],
         "stateMutability": "nonpayable",
         "type": "function"
      },
      {
         "inputs": [
            {
               "internalType": "address",
               "name": "user",
               "type": "address"
            }
         ],
         "name": "registerUser",
         "outputs": [],
         "stateMutability": "nonpayable",
         "type": "function"
      },
      {
         "inputs": [
            {
               "internalType": "address",
               "name": "user",
               "type": "address"
            }
         ],
         "name": "showMatches",
         "outputs": [
            {
               "components": [
                  {
                     "internalType": "address",
                     "name": "_userFirst",
                     "type": "address"
                  },
                  {
                     "internalType": "uint256",
                     "name": "_valueOfFirstUser",
                     "type": "uint256"
                  },
                  {
                     "internalType": "address",
                     "name": "_userSecond",
                     "type": "address"
                  },
                  {
                     "internalType": "uint256",
                     "name": "_valueOfSecondUser",
                     "type": "uint256"
                  },
                  {
                     "internalType": "bool",
                     "name": "_approvedByFirstUser",
                     "type": "bool"
                  },
                  {
                     "internalType": "bool",
                     "name": "_approvedBySecondUser",
                     "type": "bool"
                  }
               ],
               "internalType": "struct Match[]",
               "name": "",
               "type": "tuple[]"
            }
         ],
         "stateMutability": "nonpayable",
         "type": "function"
      },
      {
         "inputs": [
            {
               "components": [
                  {
                     "internalType": "address",
                     "name": "_userFirst",
                     "type": "address"
                  },
                  {
                     "internalType": "uint256",
                     "name": "_valueOfFirstUser",
                     "type": "uint256"
                  },
                  {
                     "internalType": "address",
                     "name": "_userSecond",
                     "type": "address"
                  },
                  {
                     "internalType": "uint256",
                     "name": "_valueOfSecondUser",
                     "type": "uint256"
                  },
                  {
                     "internalType": "bool",
                     "name": "_approvedByFirstUser",
                     "type": "bool"
                  },
                  {
                     "internalType": "bool",
                     "name": "_approvedBySecondUser",
                     "type": "bool"
                  }
               ],
               "internalType": "struct Match",
               "name": "subj",
               "type": "tuple"
            }
         ],
         "name": "swap",
         "outputs": [],
         "stateMutability": "nonpayable",
         "type": "function"
      },
      {
         "inputs": [
            {
               "internalType": "address",
               "name": "userWhoLooksForMatch",
               "type": "address"
            }
         ],
         "name": "swapNoParams",
         "outputs": [],
         "stateMutability": "nonpayable",
         "type": "function"
      },
      {
         "inputs": [],
         "name": "usersInTotal",
         "outputs": [
            {
               "internalType": "uint256",
               "name": "",
               "type": "uint256"
            }
         ],
         "stateMutability": "view",
         "type": "function"
      }
   ],
   "bytecode": "0x6080604052620151806000556000600160006101000a81548173ffffffffffffffffffffffffffffffffffffffff021916908373ffffffffffffffffffffffffffffffffffffffff1602179055503480156200005a57600080fd5b5060405162006b9238038062006b928339818101604052810190620000809190620001b6565b82600260006101000a81548173ffffffffffffffffffffffffffffffffffffffff021916908373ffffffffffffffffffffffffffffffffffffffff16021790555081600360006101000a81548173ffffffffffffffffffffffffffffffffffffffff021916908373ffffffffffffffffffffffffffffffffffffffff16021790555080600860006101000a81548173ffffffffffffffffffffffffffffffffffffffff021916908373ffffffffffffffffffffffffffffffffffffffff16021790555050505062000212565b600080fd5b600073ffffffffffffffffffffffffffffffffffffffff82169050919050565b60006200017e8262000151565b9050919050565b620001908162000171565b81146200019c57600080fd5b50565b600081519050620001b08162000185565b92915050565b600080600060608486031215620001d257620001d16200014c565b5b6000620001e2868287016200019f565b9350506020620001f5868287016200019f565b925050604062000208868287016200019f565b9150509250925092565b61697080620002226000396000f3fe608060405234801561001057600080fd5b506004361061009e5760003560e01c80638d4e6b36116100665780638d4e6b3614610131578063a92375f414610161578063b71bc20e1461017d578063ec1ae01d146101ad578063f79d128e146101cb5761009e565b806304310fda146100a35780631ac7a513146100bf5780632199d5cd146100ef5780633548ff9d1461010b57806387e18d1014610127575b600080fd5b6100bd60048036038101906100b89190615216565b6101e7565b005b6100d960048036038101906100d49190615243565b6107ab565b6040516100e691906153ba565b60405180910390f35b61010960048036038101906101049190615243565b6108c3565b005b61012560048036038101906101209190615216565b610982565b005b61012f6113e6565b005b61014b60048036038101906101469190615496565b611891565b604051610158919061559d565b60405180910390f35b61017b600480360381019061017691906155bf565b611907565b005b61019760048036038101906101929190615243565b611cef565b6040516101a49190615763565b60405180910390f35b6101b561269c565b6040516101c29190615794565b60405180910390f35b6101e560048036038101906101e09190615243565b6126a9565b005b60008054426101f691906157de565b90506102366040518060400160405280601181526020017f5b73746172745d20737761702063616c6c000000000000000000000000000000815250612853565b61023f336128ec565b6102f6600360009054906101000a900473ffffffffffffffffffffffffffffffffffffffff1673ffffffffffffffffffffffffffffffffffffffff1663081812fc84602001516040518263ffffffff1660e01b81526004016102a19190615794565b60206040518083038186803b1580156102b957600080fd5b505afa1580156102cd573d6000803e3d6000fd5b505050506040513d601f19601f820116820180604052508101906102f19190615849565b6128ec565b6103038260200151612985565b6103416040518060400160405280601e81526020017f5b696e2070726f67726573735d2063616c6c20696e2070726f67726573730000815250612853565b600360009054906101000a900473ffffffffffffffffffffffffffffffffffffffff1673ffffffffffffffffffffffffffffffffffffffff1663baa341108360200151836040518363ffffffff1660e01b81526004016103a2929190615876565b600060405180830381600087803b1580156103bc57600080fd5b505af11580156103d0573d6000803e3d6000fd5b50505050600360009054906101000a900473ffffffffffffffffffffffffffffffffffffffff1673ffffffffffffffffffffffffffffffffffffffff1663baa341108360600151836040518363ffffffff1660e01b8152600401610435929190615876565b600060405180830381600087803b15801561044f57600080fd5b505af1158015610463573d6000803e3d6000fd5b50505050600782908060018154018082558091505060019003906000526020600020906005020160009091909190915060008201518160000160006101000a81548173ffffffffffffffffffffffffffffffffffffffff021916908373ffffffffffffffffffffffffffffffffffffffff1602179055506020820151816001015560408201518160020160006101000a81548173ffffffffffffffffffffffffffffffffffffffff021916908373ffffffffffffffffffffffffffffffffffffffff1602179055506060820151816003015560808201518160040160006101000a81548160ff02191690831515021790555060a08201518160040160016101000a81548160ff021916908315150217905550505080600360009054906101000a900473ffffffffffffffffffffffffffffffffffffffff1673ffffffffffffffffffffffffffffffffffffffff1663761610fc84602001516040518263ffffffff1660e01b81526004016105d79190615794565b60006040518083038186803b1580156105ef57600080fd5b505afa158015610603573d6000803e3d6000fd5b505050506040513d6000823e3d601f19601f8201168201806040525081019061062c91906159e1565b6080015114610670576040517f08c379a000000000000000000000000000000000000000000000000000000000815260040161066790615aad565b60405180910390fd5b80600360009054906101000a900473ffffffffffffffffffffffffffffffffffffffff1673ffffffffffffffffffffffffffffffffffffffff1663761610fc84606001516040518263ffffffff1660e01b81526004016106d09190615794565b60006040518083038186803b1580156106e857600080fd5b505afa1580156106fc573d6000803e3d6000fd5b505050506040513d6000823e3d601f19601f8201168201806040525081019061072591906159e1565b6080015114610769576040517f08c379a000000000000000000000000000000000000000000000000000000000815260040161076090615aad565b60405180910390fd5b6107a76040518060400160405280600f81526020017f5b656e645d20737761702063616c6c0000000000000000000000000000000000815250612853565b5050565b6060600660008373ffffffffffffffffffffffffffffffffffffffff1673ffffffffffffffffffffffffffffffffffffffff168152602001908152602001600020805480602002602001604051908101604052809291908181526020016000905b828210156108b857838290600052602060002001805461082b90615afc565b80601f016020809104026020016040519081016040528092919081815260200182805461085790615afc565b80156108a45780601f10610879576101008083540402835291602001916108a4565b820191906000526020600020905b81548152906001019060200180831161088757829003601f168201915b50505050508152602001906001019061080c565b505050509050919050565b600115156108d082612a1e565b15151415610913576040517f08c379a000000000000000000000000000000000000000000000000000000000815260040161090a90615ba0565b60405180910390fd5b6004819080600181540180825580915050600190039060005260206000200160009091909190916101000a81548173ffffffffffffffffffffffffffffffffffffffff021916908373ffffffffffffffffffffffffffffffffffffffff16021790555061097f81612acd565b50565b8060006109c36040518060400160405280601081526020017f5b73746172745d206d6f64696669657200000000000000000000000000000000815250612853565b60005b600780549050811015610cbd57600060076000815481106109ea576109e9615bc0565b5b90600052602060002090600502016040518060c00160405290816000820160009054906101000a900473ffffffffffffffffffffffffffffffffffffffff1673ffffffffffffffffffffffffffffffffffffffff1673ffffffffffffffffffffffffffffffffffffffff168152602001600182015481526020016002820160009054906101000a900473ffffffffffffffffffffffffffffffffffffffff1673ffffffffffffffffffffffffffffffffffffffff1673ffffffffffffffffffffffffffffffffffffffff168152602001600382015481526020016004820160009054906101000a900460ff161515151581526020016004820160019054906101000a900460ff1615151515815250509050610b396040518060400160405280601481526020017f5b636865636b206d61746368206f626a6563745d000000000000000000000000815250612853565b610b4681600001516128ec565b610b5381604001516128ec565b610b6084600001516128ec565b836000015173ffffffffffffffffffffffffffffffffffffffff16816000015173ffffffffffffffffffffffffffffffffffffffff16148015610bd65750836040015173ffffffffffffffffffffffffffffffffffffffff16816040015173ffffffffffffffffffffffffffffffffffffffff16145b8015610be9575083602001518160200151145b8015610bfc575083606001518160600151145b80610c9f5750836040015173ffffffffffffffffffffffffffffffffffffffff16816000015173ffffffffffffffffffffffffffffffffffffffff16148015610c785750836000015173ffffffffffffffffffffffffffffffffffffffff16816040015173ffffffffffffffffffffffffffffffffffffffff16145b8015610c8b575083606001518160200151145b8015610c9e575083602001518160600151145b5b15610ca957600192505b508080610cb590615bef565b9150506109c6565b50610cfc6040518060400160405280601e81526020017f5b656e645d206d6f6469666965722c206265666f726520726571756972650000815250612853565b80610d3c576040517f08c379a0000000000000000000000000000000000000000000000000000000008152600401610d3390615cd0565b60405180910390fd5b82610d7b6040518060400160405280601881526020017f5b73746172745d206861734265656e4170726f76656428290000000000000000815250612853565b6000600360009054906101000a900473ffffffffffffffffffffffffffffffffffffffff1673ffffffffffffffffffffffffffffffffffffffff1663081812fc83602001516040518263ffffffff1660e01b8152600401610ddc9190615794565b60206040518083038186803b158015610df457600080fd5b505afa158015610e08573d6000803e3d6000fd5b505050506040513d601f19601f82011682018060405250810190610e2c9190615849565b90506000600360009054906101000a900473ffffffffffffffffffffffffffffffffffffffff1673ffffffffffffffffffffffffffffffffffffffff1663081812fc84606001516040518263ffffffff1660e01b8152600401610e8f9190615794565b60206040518083038186803b158015610ea757600080fd5b505afa158015610ebb573d6000803e3d6000fd5b505050506040513d601f19601f82011682018060405250810190610edf9190615849565b90506000600360009054906101000a900473ffffffffffffffffffffffffffffffffffffffff1673ffffffffffffffffffffffffffffffffffffffff1663e985e9c58560000151306040518363ffffffff1660e01b8152600401610f44929190615cff565b60206040518083038186803b158015610f5c57600080fd5b505afa158015610f70573d6000803e3d6000fd5b505050506040513d601f19601f82011682018060405250810190610f949190615d28565b90506000600360009054906101000a900473ffffffffffffffffffffffffffffffffffffffff1673ffffffffffffffffffffffffffffffffffffffff1663e985e9c58660400151306040518363ffffffff1660e01b8152600401610ff9929190615cff565b60206040518083038186803b15801561101157600080fd5b505afa158015611025573d6000803e3d6000fd5b505050506040513d601f19601f820116820180604052508101906110499190615d28565b9050611054846128ec565b61105d836128ec565b611066306128ec565b8373ffffffffffffffffffffffffffffffffffffffff163073ffffffffffffffffffffffffffffffffffffffff161480156110cc57508273ffffffffffffffffffffffffffffffffffffffff163073ffffffffffffffffffffffffffffffffffffffff16145b806110dd57508180156110dc5750805b5b61111c576040517f08c379a000000000000000000000000000000000000000000000000000000000815260040161111390615e39565b60405180910390fd5b61115a6040518060400160405280601681526020017f5b656e645d206861734265656e4170726f766564282900000000000000000000815250612853565b876000015173ffffffffffffffffffffffffffffffffffffffff163373ffffffffffffffffffffffffffffffffffffffff1614806111c75750876040015173ffffffffffffffffffffffffffffffffffffffff163373ffffffffffffffffffffffffffffffffffffffff16145b611206576040517f08c379a00000000000000000000000000000000000000000000000000000000081526004016111fd90615ef1565b60405180910390fd5b6000806112128a612d41565b91509150600360009054906101000a900473ffffffffffffffffffffffffffffffffffffffff1673ffffffffffffffffffffffffffffffffffffffff1663761610fc82602001516040518263ffffffff1660e01b81526004016112759190615794565b60006040518083038186803b15801561128d57600080fd5b505afa1580156112a1573d6000803e3d6000fd5b505050506040513d6000823e3d601f19601f820116820180604052508101906112ca91906159e1565b60800151421080156113925750600360009054906101000a900473ffffffffffffffffffffffffffffffffffffffff1673ffffffffffffffffffffffffffffffffffffffff1663761610fc82606001516040518263ffffffff1660e01b81526004016113369190615794565b60006040518083038186803b15801561134e57600080fd5b505afa158015611362573d6000803e3d6000fd5b505050506040513d6000823e3d601f19601f8201168201806040525081019061138b91906159e1565b6080015142105b6113d1576040517f08c379a00000000000000000000000000000000000000000000000000000000081526004016113c890615f83565b60405180910390fd5b6113da8a61301a565b50505050505050505050565b60005b60078054905081101561188e5760006007828154811061140c5761140b615bc0565b5b90600052602060002090600502016040518060c00160405290816000820160009054906101000a900473ffffffffffffffffffffffffffffffffffffffff1673ffffffffffffffffffffffffffffffffffffffff1673ffffffffffffffffffffffffffffffffffffffff168152602001600182015481526020016002820160009054906101000a900473ffffffffffffffffffffffffffffffffffffffff1673ffffffffffffffffffffffffffffffffffffffff1673ffffffffffffffffffffffffffffffffffffffff168152602001600382015481526020016004820160009054906101000a900460ff161515151581526020016004820160019054906101000a900460ff161515151581525050905060016007838154811061153357611532615bc0565b5b906000526020600020906005020160040160006101000a81548160ff0219169083151502179055611599576040517f08c379a000000000000000000000000000000000000000000000000000000000815260040161159090616015565b60405180910390fd5b6001600783815481106115af576115ae615bc0565b5b906000526020600020906005020160040160016101000a81548160ff0219169083151502179055611615576040517f08c379a000000000000000000000000000000000000000000000000000000000815260040161160c906160a7565b60405180910390fd5b600360009054906101000a900473ffffffffffffffffffffffffffffffffffffffff1673ffffffffffffffffffffffffffffffffffffffff16632b910aa282602001516040518263ffffffff1660e01b81526004016116749190615794565b600060405180830381600087803b15801561168e57600080fd5b505af11580156116a2573d6000803e3d6000fd5b50505050600360009054906101000a900473ffffffffffffffffffffffffffffffffffffffff1673ffffffffffffffffffffffffffffffffffffffff16632b910aa282606001516040518263ffffffff1660e01b81526004016117059190615794565b600060405180830381600087803b15801561171f57600080fd5b505af1158015611733573d6000803e3d6000fd5b50505050600360009054906101000a900473ffffffffffffffffffffffffffffffffffffffff1673ffffffffffffffffffffffffffffffffffffffff166342842e0e8260000151836040015184602001516040518463ffffffff1660e01b81526004016117a2939291906160c7565b600060405180830381600087803b1580156117bc57600080fd5b505af11580156117d0573d6000803e3d6000fd5b50505050600360009054906101000a900473ffffffffffffffffffffffffffffffffffffffff1673ffffffffffffffffffffffffffffffffffffffff166342842e0e8260400151836000015184606001516040518463ffffffff1660e01b815260040161183f939291906160c7565b600060405180830381600087803b15801561185957600080fd5b505af115801561186d573d6000803e3d6000fd5b5050505061187a816133a6565b50808061188690615bef565b9150506113e9565b50565b60606005826040516118a3919061613a565b90815260200160405180910390208054806020026020016040519081016040528092919081815260200182805480156118fb57602002820191906000526020600020905b8154815260200190600101908083116118e7575b50505050509050919050565b6119456040518060400160405280601881526020017f5b73746172745d20726567697374657244656d616e6428290000000000000000815250612853565b8173ffffffffffffffffffffffffffffffffffffffff163373ffffffffffffffffffffffffffffffffffffffff16148015611985575061198482612a1e565b5b6119c4576040517f08c379a00000000000000000000000000000000000000000000000000000000081526004016119bb906161e9565b60405180910390fd5b6000600660008473ffffffffffffffffffffffffffffffffffffffff1673ffffffffffffffffffffffffffffffffffffffff168152602001908152602001600020805480602002602001604051908101604052809291908181526020016000905b82821015611ad1578382906000526020600020018054611a4490615afc565b80601f0160208091040260200160405190810160405280929190818152602001828054611a7090615afc565b8015611abd5780601f10611a9257610100808354040283529160200191611abd565b820191906000526020600020905b815481529060010190602001808311611aa057829003601f168201915b505050505081526020019060010190611a25565b5050505090506000805b8251811015611bf057611b08838281518110611afa57611af9615bc0565b5b6020026020010151856133c4565b600260009054906101000a900473ffffffffffffffffffffffffffffffffffffffff1673ffffffffffffffffffffffffffffffffffffffff16632480fa14848381518110611b5957611b58615bc0565b5b6020026020010151866040518363ffffffff1660e01b8152600401611b7f929190616242565b60206040518083038186803b158015611b9757600080fd5b505afa158015611bab573d6000803e3d6000fd5b505050506040513d601f19601f82011682018060405250810190611bcf9190615d28565b15611bdd5760019150611bf0565b8080611be890615bef565b915050611adb565b508015611c32576040517f08c379a0000000000000000000000000000000000000000000000000000000008152600401611c29906162eb565b60405180910390fd5b600660008573ffffffffffffffffffffffffffffffffffffffff1673ffffffffffffffffffffffffffffffffffffffff16815260200190815260200160002083908060018154018082558091505060019003906000526020600020016000909190919091509080519060200190611caa929190614eb7565b50611ce96040518060400160405280601681526020017f5b656e645d20726567697374657244656d616e64282900000000000000000000815250612853565b50505050565b6060611d2f6040518060400160405280601481526020017f5b73746172745d2073686f774d61746368444556000000000000000000000000815250612853565b60011515611d3c83612a1e565b151514611d7e576040517f08c379a0000000000000000000000000000000000000000000000000000000008152600401611d759061637d565b60405180910390fd5b6000600660008473ffffffffffffffffffffffffffffffffffffffff1673ffffffffffffffffffffffffffffffffffffffff168152602001908152602001600020805490501415611e04576040517f08c379a0000000000000000000000000000000000000000000000000000000008152600401611dfb9061640f565b60405180910390fd5b611e856040518060400160405280601c81526020017f5f64656d616e6473427955736572735b757365725d2e6c656e67746800000000815250600660008573ffffffffffffffffffffffffffffffffffffffff1673ffffffffffffffffffffffffffffffffffffffff16815260200190815260200160002080549050613460565b60005b600660008473ffffffffffffffffffffffffffffffffffffffff1673ffffffffffffffffffffffffffffffffffffffff168152602001908152602001600020805490508110156124d657611f106040518060400160405280600f81526020017f57697468696e20317374206c6f6f700000000000000000000000000000000000815250612853565b6000600660008573ffffffffffffffffffffffffffffffffffffffff1673ffffffffffffffffffffffffffffffffffffffff1681526020019081526020016000208281548110611f6357611f62615bc0565b5b906000526020600020018054611f7890615afc565b80601f0160208091040260200160405190810160405280929190818152602001828054611fa490615afc565b8015611ff15780601f10611fc657610100808354040283529160200191611ff1565b820191906000526020600020905b815481529060010190602001808311611fd457829003601f168201915b505050505090506000600360009054906101000a900473ffffffffffffffffffffffffffffffffffffffff1673ffffffffffffffffffffffffffffffffffffffff1663442342a6866040518263ffffffff1660e01b8152600401612055919061642f565b60006040518083038186803b15801561206d57600080fd5b505afa158015612081573d6000803e3d6000fd5b505050506040513d6000823e3d601f19601f820116820180604052508101906120aa9190616512565b905060006005836040516120be919061613a565b908152602001604051809103902080548060200260200160405190810160405280929190818152602001828054801561211657602002820191906000526020600020905b815481526020019060010190808311612102575b5050505050905061215c6040518060400160405280600b81526020017f6a61636b2064656d616e64000000000000000000000000000000000000000000815250846133c4565b61219c6040518060400160405280601981526020017f616c6c417661696c61626c654f66666572732e6c656e677468000000000000008152508251613460565b6000815114156121ae575050506124c3565b60005b81518110156124be5760008282815181106121cf576121ce615bc0565b5b602002602001015190506000600360009054906101000a900473ffffffffffffffffffffffffffffffffffffffff1673ffffffffffffffffffffffffffffffffffffffff16636352211e836040518263ffffffff1660e01b81526004016122369190615794565b60206040518083038186803b15801561224e57600080fd5b505afa158015612262573d6000803e3d6000fd5b505050506040513d601f19601f820116820180604052508101906122869190615849565b90506000600660008373ffffffffffffffffffffffffffffffffffffffff1673ffffffffffffffffffffffffffffffffffffffff168152602001908152602001600020805480602002602001604051908101604052809291908181526020016000905b8282101561239557838290600052602060002001805461230890615afc565b80601f016020809104026020016040519081016040528092919081815260200182805461233490615afc565b80156123815780601f1061235657610100808354040283529160200191612381565b820191906000526020600020905b81548152906001019060200180831161236457829003601f168201915b5050505050815260200190600101906122e9565b50505050905060006123a9888886856134fc565b90506123b481613b1f565b80156123c557506123c481613bdc565b5b80156123d657506123d581613d6c565b5b156124a7576124196040518060400160405280602081526020017f5b656e645d2073686f774d61746368444556202d206265666f72652070757368815250612853565b600860009054906101000a900473ffffffffffffffffffffffffffffffffffffffff1673ffffffffffffffffffffffffffffffffffffffff166370972a39826040518263ffffffff1660e01b815260040161247491906165d6565b600060405180830381600087803b15801561248e57600080fd5b505af11580156124a2573d6000803e3d6000fd5b505050505b5050505080806124b690615bef565b9150506121b1565b505050505b80806124ce90615bef565b915050611e88565b507f23bf22122162a71bb4f8e9e8b7b9ecdb047f58ddf2d609ffc941585d94308f5d600860009054906101000a900473ffffffffffffffffffffffffffffffffffffffff1673ffffffffffffffffffffffffffffffffffffffff1663d504ea1d6040518163ffffffff1660e01b815260040160006040518083038186803b15801561256057600080fd5b505afa158015612574573d6000803e3d6000fd5b505050506040513d6000823e3d601f19601f8201168201806040525081019061259d9190616754565b6040516125aa9190615763565b60405180910390a16125f06040518060400160405280601281526020017f5b656e645d2073686f774d617463684445560000000000000000000000000000815250612853565b600860009054906101000a900473ffffffffffffffffffffffffffffffffffffffff1673ffffffffffffffffffffffffffffffffffffffff1663d504ea1d6040518163ffffffff1660e01b815260040160006040518083038186803b15801561265857600080fd5b505afa15801561266c573d6000803e3d6000fd5b505050506040513d6000823e3d601f19601f820116820180604052508101906126959190616754565b9050919050565b6000600480549050905090565b60003073ffffffffffffffffffffffffffffffffffffffff1663b71bc20e836040518263ffffffff1660e01b81526004016126e4919061642f565b600060405180830381600087803b1580156126fe57600080fd5b505af1158015612712573d6000803e3d6000fd5b505050506040513d6000823e3d601f19601f8201168201806040525081019061273b9190616754565b9050600081511115612810573073ffffffffffffffffffffffffffffffffffffffff166304310fda8260008151811061277757612776615bc0565b5b60200260200101516040518263ffffffff1660e01b815260040161279b91906165d6565b600060405180830381600087803b1580156127b557600080fd5b505af11580156127c9573d6000803e3d6000fd5b5050505061280b6040518060400160405280601e81526020017f5b6265666f726520737761705d2054686572652069732061206d617463680000815250612853565b61284f565b61284e6040518060400160405280601f81526020017f5b6265666f726520737761705d205468657265206973204e4f206d6174636800815250612853565b5b5050565b6128e981604051602401612867919061679d565b6040516020818303038152906040527f41304fac000000000000000000000000000000000000000000000000000000007bffffffffffffffffffffffffffffffffffffffffffffffffffffffff19166020820180517bffffffffffffffffffffffffffffffffffffffffffffffffffffffff8381831617835250505050613efc565b50565b61298281604051602401612900919061642f565b6040516020818303038152906040527f2c2ecbc2000000000000000000000000000000000000000000000000000000007bffffffffffffffffffffffffffffffffffffffffffffffffffffffff19166020820180517bffffffffffffffffffffffffffffffffffffffffffffffffffffffff8381831617835250505050613efc565b50565b612a1b816040516024016129999190615794565b6040516020818303038152906040527ff82c50f1000000000000000000000000000000000000000000000000000000007bffffffffffffffffffffffffffffffffffffffffffffffffffffffff19166020820180517bffffffffffffffffffffffffffffffffffffffffffffffffffffffff8381831617835250505050613efc565b50565b600080600090505b600480549050811015612ac2578273ffffffffffffffffffffffffffffffffffffffff1660048281548110612a5e57612a5d615bc0565b5b9060005260206000200160009054906101000a900473ffffffffffffffffffffffffffffffffffffffff1673ffffffffffffffffffffffffffffffffffffffff161415612aaf576001915050612ac8565b8080612aba90615bef565b915050612a26565b50600090505b919050565b612b0c6040518060400160405280601581526020017f55706461746520696e64657820666f722075736572000000000000000000000081525082613f25565b6000600360009054906101000a900473ffffffffffffffffffffffffffffffffffffffff1673ffffffffffffffffffffffffffffffffffffffff1663442342a6836040518263ffffffff1660e01b8152600401612b69919061642f565b60006040518083038186803b158015612b8157600080fd5b505afa158015612b95573d6000803e3d6000fd5b505050506040513d6000823e3d601f19601f82011682018060405250810190612bbe9190616512565b905060005b8151811015612d3c576000828281518110612be157612be0615bc0565b5b602002602001015190506000600360009054906101000a900473ffffffffffffffffffffffffffffffffffffffff1673ffffffffffffffffffffffffffffffffffffffff1663761610fc836040518263ffffffff1660e01b8152600401612c489190615794565b60006040518083038186803b158015612c6057600080fd5b505afa158015612c74573d6000803e3d6000fd5b505050506040513d6000823e3d601f19601f82011682018060405250810190612c9d91906159e1565b600001519050600581604051612cb3919061613a565b9081526020016040518091039020829080600181540180825580915050600190039060005260206000200160009091909190915055612d276040518060400160405280601281526020017f5265676973746572206e657720696e6465780000000000000000000000000000815250826133c4565b50508080612d3490615bef565b915050612bc3565b505050565b6000612d4b614f3d565b612d53614f3d565b60005b60078054905081101561300b57600060078281548110612d7957612d78615bc0565b5b90600052602060002090600502016040518060c00160405290816000820160009054906101000a900473ffffffffffffffffffffffffffffffffffffffff1673ffffffffffffffffffffffffffffffffffffffff1673ffffffffffffffffffffffffffffffffffffffff168152602001600182015481526020016002820160009054906101000a900473ffffffffffffffffffffffffffffffffffffffff1673ffffffffffffffffffffffffffffffffffffffff1673ffffffffffffffffffffffffffffffffffffffff168152602001600382015481526020016004820160009054906101000a900460ff161515151581526020016004820160019054906101000a900460ff1615151515815250509050612e9781600001516128ec565b612ea486600001516128ec565b856000015173ffffffffffffffffffffffffffffffffffffffff16816000015173ffffffffffffffffffffffffffffffffffffffff16148015612f1a5750856040015173ffffffffffffffffffffffffffffffffffffffff16816040015173ffffffffffffffffffffffffffffffffffffffff16145b8015612f2d575085602001518160200151145b8015612f40575085606001518160600151145b80612fe35750856040015173ffffffffffffffffffffffffffffffffffffffff16816000015173ffffffffffffffffffffffffffffffffffffffff16148015612fbc5750856000015173ffffffffffffffffffffffffffffffffffffffff16816040015173ffffffffffffffffffffffffffffffffffffffff16145b8015612fcf575085606001518160200151145b8015612fe2575085602001518160600151145b5b15612ff75760018194509450505050613015565b50808061300390615bef565b915050612d56565b5060008192509250505b915091565b60005b6007805490508110156133a2576000600782815481106130405761303f615bc0565b5b90600052602060002090600502016040518060c00160405290816000820160009054906101000a900473ffffffffffffffffffffffffffffffffffffffff1673ffffffffffffffffffffffffffffffffffffffff1673ffffffffffffffffffffffffffffffffffffffff168152602001600182015481526020016002820160009054906101000a900473ffffffffffffffffffffffffffffffffffffffff1673ffffffffffffffffffffffffffffffffffffffff1673ffffffffffffffffffffffffffffffffffffffff168152602001600382015481526020016004820160009054906101000a900460ff161515151581526020016004820160019054906101000a900460ff1615151515815250509050826000015173ffffffffffffffffffffffffffffffffffffffff16816000015173ffffffffffffffffffffffffffffffffffffffff161480156131c75750826040015173ffffffffffffffffffffffffffffffffffffffff16816040015173ffffffffffffffffffffffffffffffffffffffff16145b80156131da575082602001518160200151145b80156131ed575082606001518160600151145b806132905750826040015173ffffffffffffffffffffffffffffffffffffffff16816000015173ffffffffffffffffffffffffffffffffffffffff161480156132695750826000015173ffffffffffffffffffffffffffffffffffffffff16816040015173ffffffffffffffffffffffffffffffffffffffff16145b801561327c575082606001518160200151145b801561328f575082602001518160600151145b5b1561338e573373ffffffffffffffffffffffffffffffffffffffff16816000015173ffffffffffffffffffffffffffffffffffffffff161415613311576001600783815481106132e3576132e2615bc0565b5b906000526020600020906005020160040160006101000a81548160ff021916908315150217905550506133a2565b3373ffffffffffffffffffffffffffffffffffffffff16816040015173ffffffffffffffffffffffffffffffffffffffff16141561338d5760016007838154811061335f5761335e615bc0565b5b906000526020600020906005020160040160016101000a81548160ff021916908315150217905550506133a2565b5b50808061339a90615bef565b91505061301d565b5050565b6133af81613fc1565b6133b881614541565b6133c181614a60565b50565b61345c82826040516024016133da929190616242565b6040516020818303038152906040527f4b5c4277000000000000000000000000000000000000000000000000000000007bffffffffffffffffffffffffffffffffffffffffffffffffffffffff19166020820180517bffffffffffffffffffffffffffffffffffffffffffffffffffffffff8381831617835250505050613efc565b5050565b6134f882826040516024016134769291906167bf565b6040516020818303038152906040527fb60e72cc000000000000000000000000000000000000000000000000000000007bffffffffffffffffffffffffffffffffffffffffffffffffffffffff19166020820180517bffffffffffffffffffffffffffffffffffffffffffffffffffffffff8381831617835250505050613efc565b5050565b613504614f3d565b600260009054906101000a900473ffffffffffffffffffffffffffffffffffffffff1673ffffffffffffffffffffffffffffffffffffffff16632480fa1486600360009054906101000a900473ffffffffffffffffffffffffffffffffffffffff1673ffffffffffffffffffffffffffffffffffffffff1663761610fc876040518263ffffffff1660e01b815260040161359e9190615794565b60006040518083038186803b1580156135b657600080fd5b505afa1580156135ca573d6000803e3d6000fd5b505050506040513d6000823e3d601f19601f820116820180604052508101906135f391906159e1565b600001516040518363ffffffff1660e01b8152600401613614929190616242565b60206040518083038186803b15801561362c57600080fd5b505afa158015613640573d6000803e3d6000fd5b505050506040513d601f19601f820116820180604052508101906136649190615d28565b6136a3576040517f08c379a000000000000000000000000000000000000000000000000000000000815260040161369a90616887565b60405180910390fd5b6136e16040518060400160405280601181526020017f5b73746172745d2069734d617463682829000000000000000000000000000000815250612853565b60008080600090505b86518110156138eb576000600360009054906101000a900473ffffffffffffffffffffffffffffffffffffffff1673ffffffffffffffffffffffffffffffffffffffff1663761610fc89848151811061374657613745615bc0565b5b60200260200101516040518263ffffffff1660e01b815260040161376a9190615794565b60006040518083038186803b15801561378257600080fd5b505afa158015613796573d6000803e3d6000fd5b505050506040513d6000823e3d601f19601f820116820180604052508101906137bf91906159e1565b905060005b86518110156138d657600260009054906101000a900473ffffffffffffffffffffffffffffffffffffffff1673ffffffffffffffffffffffffffffffffffffffff16632480fa14836000015189848151811061382357613822615bc0565b5b60200260200101516040518363ffffffff1660e01b8152600401613848929190616242565b60206040518083038186803b15801561386057600080fd5b505afa158015613874573d6000803e3d6000fd5b505050506040513d601f19601f820116820180604052508101906138989190615d28565b156138c3578883815181106138b0576138af615bc0565b5b60200260200101519350600194506138d6565b80806138ce90615bef565b9150506137c4565b505080806138e390615bef565b9150506136ea565b506138f4614f3d565b8215613ad357600360009054906101000a900473ffffffffffffffffffffffffffffffffffffffff1673ffffffffffffffffffffffffffffffffffffffff16636352211e836040518263ffffffff1660e01b81526004016139559190615794565b60206040518083038186803b15801561396d57600080fd5b505afa158015613981573d6000803e3d6000fd5b505050506040513d601f19601f820116820180604052508101906139a59190615849565b816000019073ffffffffffffffffffffffffffffffffffffffff16908173ffffffffffffffffffffffffffffffffffffffff168152505081816020018181525050600360009054906101000a900473ffffffffffffffffffffffffffffffffffffffff1673ffffffffffffffffffffffffffffffffffffffff16636352211e876040518263ffffffff1660e01b8152600401613a419190615794565b60206040518083038186803b158015613a5957600080fd5b505afa158015613a6d573d6000803e3d6000fd5b505050506040513d601f19601f82011682018060405250810190613a919190615849565b816040019073ffffffffffffffffffffffffffffffffffffffff16908173ffffffffffffffffffffffffffffffffffffffff1681525050858160600181815250505b613b116040518060400160405280600f81526020017f5b656e645d2069734d6174636828290000000000000000000000000000000000815250612853565b809350505050949350505050565b6000600160009054906101000a900473ffffffffffffffffffffffffffffffffffffffff1673ffffffffffffffffffffffffffffffffffffffff16826000015173ffffffffffffffffffffffffffffffffffffffff1614158015613bd55750600160009054906101000a900473ffffffffffffffffffffffffffffffffffffffff1673ffffffffffffffffffffffffffffffffffffffff16826040015173ffffffffffffffffffffffffffffffffffffffff1614155b9050919050565b600080600360009054906101000a900473ffffffffffffffffffffffffffffffffffffffff1673ffffffffffffffffffffffffffffffffffffffff1663761610fc84602001516040518263ffffffff1660e01b8152600401613c3e9190615794565b60006040518083038186803b158015613c5657600080fd5b505afa158015613c6a573d6000803e3d6000fd5b505050506040513d6000823e3d601f19601f82011682018060405250810190613c9391906159e1565b6080015190506000600360009054906101000a900473ffffffffffffffffffffffffffffffffffffffff1673ffffffffffffffffffffffffffffffffffffffff1663761610fc85606001516040518263ffffffff1660e01b8152600401613cfa9190615794565b60006040518083038186803b158015613d1257600080fd5b505afa158015613d26573d6000803e3d6000fd5b505050506040513d6000823e3d601f19601f82011682018060405250810190613d4f91906159e1565b6080015190508142118015613d6357508042115b92505050919050565b600080600360009054906101000a900473ffffffffffffffffffffffffffffffffffffffff1673ffffffffffffffffffffffffffffffffffffffff1663761610fc84602001516040518263ffffffff1660e01b8152600401613dce9190615794565b60006040518083038186803b158015613de657600080fd5b505afa158015613dfa573d6000803e3d6000fd5b505050506040513d6000823e3d601f19601f82011682018060405250810190613e2391906159e1565b6080015190506000600360009054906101000a900473ffffffffffffffffffffffffffffffffffffffff1673ffffffffffffffffffffffffffffffffffffffff1663761610fc85606001516040518263ffffffff1660e01b8152600401613e8a9190615794565b60006040518083038186803b158015613ea257600080fd5b505afa158015613eb6573d6000803e3d6000fd5b505050506040513d6000823e3d601f19601f82011682018060405250810190613edf91906159e1565b6080015190508142118015613ef357508042115b92505050919050565b60008151905060006a636f6e736f6c652e6c6f679050602083016000808483855afa5050505050565b613fbd8282604051602401613f3b9291906168a7565b6040516020818303038152906040527f319af333000000000000000000000000000000000000000000000000000000007bffffffffffffffffffffffffffffffffffffffffffffffffffffffff19166020820180517bffffffffffffffffffffffffffffffffffffffffffffffffffffffff8381831617835250505050613efc565b5050565b60006007805490501415613fd45761453e565b60006001600780549050613fe891906168d7565b67ffffffffffffffff8111156140015761400061502a565b5b60405190808252806020026020018201604052801561403a57816020015b614027614f3d565b81526020019060019003908161401f5790505b5090506000805b600160078054905061405391906168d7565b811015614489576000600782815481106140705761406f615bc0565b5b90600052602060002090600502016040518060c00160405290816000820160009054906101000a900473ffffffffffffffffffffffffffffffffffffffff1673ffffffffffffffffffffffffffffffffffffffff1673ffffffffffffffffffffffffffffffffffffffff168152602001600182015481526020016002820160009054906101000a900473ffffffffffffffffffffffffffffffffffffffff1673ffffffffffffffffffffffffffffffffffffffff1673ffffffffffffffffffffffffffffffffffffffff168152602001600382015481526020016004820160009054906101000a900460ff161515151581526020016004820160019054906101000a900460ff1615151515815250509050846000015173ffffffffffffffffffffffffffffffffffffffff16816000015173ffffffffffffffffffffffffffffffffffffffff161480156141f75750846040015173ffffffffffffffffffffffffffffffffffffffff16816040015173ffffffffffffffffffffffffffffffffffffffff16145b801561420a575084602001518160200151145b801561421d575084606001518160600151145b806142c05750846040015173ffffffffffffffffffffffffffffffffffffffff16816000015173ffffffffffffffffffffffffffffffffffffffff161480156142995750846000015173ffffffffffffffffffffffffffffffffffffffff16816040015173ffffffffffffffffffffffffffffffffffffffff16145b80156142ac575084606001518160200151145b80156142bf575084602001518160600151145b5b156142d257826142cf90615bef565b92505b60016007805490506142e491906168d7565b8311156142f15750614476565b6007838154811061430557614304615bc0565b5b90600052602060002090600502016007838154811061432757614326615bc0565b5b90600052602060002090600502016000820160009054906101000a900473ffffffffffffffffffffffffffffffffffffffff168160000160006101000a81548173ffffffffffffffffffffffffffffffffffffffff021916908373ffffffffffffffffffffffffffffffffffffffff160217905550600182015481600101556002820160009054906101000a900473ffffffffffffffffffffffffffffffffffffffff168160020160006101000a81548173ffffffffffffffffffffffffffffffffffffffff021916908373ffffffffffffffffffffffffffffffffffffffff160217905550600382015481600301556004820160009054906101000a900460ff168160040160006101000a81548160ff0219169083151502179055506004820160019054906101000a900460ff168160040160016101000a81548160ff021916908315150217905550905050505b808061448190615bef565b915050614041565b50600780548061449c5761449b61690b565b5b6001900381819060005260206000209060050201600080820160006101000a81549073ffffffffffffffffffffffffffffffffffffffff021916905560018201600090556002820160006101000a81549073ffffffffffffffffffffffffffffffffffffffff021916905560038201600090556004820160006101000a81549060ff02191690556004820160016101000a81549060ff02191690555050905550505b50565b600060066000836000015173ffffffffffffffffffffffffffffffffffffffff1673ffffffffffffffffffffffffffffffffffffffff168152602001908152602001600020805480602002602001604051908101604052809291908181526020016000905b828210156146525783829060005260206000200180546145c590615afc565b80601f01602080910402602001604051908101604052809291908181526020018280546145f190615afc565b801561463e5780601f106146135761010080835404028352916020019161463e565b820191906000526020600020905b81548152906001019060200180831161462157829003601f168201915b5050505050815260200190600101906145a6565b5050505090506000600360009054906101000a900473ffffffffffffffffffffffffffffffffffffffff1673ffffffffffffffffffffffffffffffffffffffff1663761610fc84606001516040518263ffffffff1660e01b81526004016146b99190615794565b60006040518083038186803b1580156146d157600080fd5b505afa1580156146e5573d6000803e3d6000fd5b505050506040513d6000823e3d601f19601f8201168201806040525081019061470e91906159e1565b60000151905060005b82518110156147cc5761474483828151811061473657614735615bc0565b5b602002602001015183614dd3565b156147b95760066000856000015173ffffffffffffffffffffffffffffffffffffffff1673ffffffffffffffffffffffffffffffffffffffff168152602001908152602001600020818154811061479e5761479d615bc0565b5b9060005260206000200160006147b49190614fa3565b6147cc565b80806147c490615bef565b915050614717565b50600060066000856040015173ffffffffffffffffffffffffffffffffffffffff1673ffffffffffffffffffffffffffffffffffffffff168152602001908152602001600020805480602002602001604051908101604052809291908181526020016000905b828210156148de57838290600052602060002001805461485190615afc565b80601f016020809104026020016040519081016040528092919081815260200182805461487d90615afc565b80156148ca5780601f1061489f576101008083540402835291602001916148ca565b820191906000526020600020905b8154815290600101906020018083116148ad57829003601f168201915b505050505081526020019060010190614832565b5050505090506000600360009054906101000a900473ffffffffffffffffffffffffffffffffffffffff1673ffffffffffffffffffffffffffffffffffffffff1663761610fc86602001516040518263ffffffff1660e01b81526004016149459190615794565b60006040518083038186803b15801561495d57600080fd5b505afa158015614971573d6000803e3d6000fd5b505050506040513d6000823e3d601f19601f8201168201806040525081019061499a91906159e1565b60000151905060005b8251811015614a58576149d08382815181106149c2576149c1615bc0565b5b602002602001015183614dd3565b15614a455760066000876040015173ffffffffffffffffffffffffffffffffffffffff1673ffffffffffffffffffffffffffffffffffffffff1681526020019081526020016000208181548110614a2a57614a29615bc0565b5b906000526020600020016000614a409190614fa3565b614a58565b8080614a5090615bef565b9150506149a3565b505050505050565b6000600360009054906101000a900473ffffffffffffffffffffffffffffffffffffffff1673ffffffffffffffffffffffffffffffffffffffff1663761610fc83602001516040518263ffffffff1660e01b8152600401614ac19190615794565b60006040518083038186803b158015614ad957600080fd5b505afa158015614aed573d6000803e3d6000fd5b505050506040513d6000823e3d601f19601f82011682018060405250810190614b1691906159e1565b6000015190506000600582604051614b2e919061613a565b9081526020016040518091039020805480602002602001604051908101604052809291908181526020018280548015614b8657602002820191906000526020600020905b815481526020019060010190808311614b72575b5050505050905060005b8151811015614c15578360200151828281518110614bb157614bb0615bc0565b5b60200260200101511415614c0257600583604051614bcf919061613a565b90815260200160405180910390208181548110614bef57614bee615bc0565b5b9060005260206000200160009055614c15565b8080614c0d90615bef565b915050614b90565b506000600360009054906101000a900473ffffffffffffffffffffffffffffffffffffffff1673ffffffffffffffffffffffffffffffffffffffff1663761610fc85606001516040518263ffffffff1660e01b8152600401614c779190615794565b60006040518083038186803b158015614c8f57600080fd5b505afa158015614ca3573d6000803e3d6000fd5b505050506040513d6000823e3d601f19601f82011682018060405250810190614ccc91906159e1565b6000015190506000600582604051614ce4919061613a565b9081526020016040518091039020805480602002602001604051908101604052809291908181526020018280548015614d3c57602002820191906000526020600020905b815481526020019060010190808311614d28575b5050505050905060005b8151811015614dcb578560600151828281518110614d6757614d66615bc0565b5b60200260200101511415614db857600583604051614d85919061613a565b90815260200160405180910390208181548110614da557614da4615bc0565b5b9060005260206000200160009055614dcb565b8080614dc390615bef565b915050614d46565b505050505050565b600080839050600083905060008251905081518114614df85760009350505050614eb1565b60005b81811015614ea857828181518110614e1657614e15615bc0565b5b602001015160f81c60f81b7effffffffffffffffffffffffffffffffffffffffffffffffffffffffffffff1916848281518110614e5657614e55615bc0565b5b602001015160f81c60f81b7effffffffffffffffffffffffffffffffffffffffffffffffffffffffffffff191614614e95576000945050505050614eb1565b8080614ea090615bef565b915050614dfb565b50600193505050505b92915050565b828054614ec390615afc565b90600052602060002090601f016020900481019282614ee55760008555614f2c565b82601f10614efe57805160ff1916838001178555614f2c565b82800160010185558215614f2c579182015b82811115614f2b578251825591602001919060010190614f10565b5b509050614f399190614fe3565b5090565b6040518060c00160405280600073ffffffffffffffffffffffffffffffffffffffff16815260200160008152602001600073ffffffffffffffffffffffffffffffffffffffff168152602001600081526020016000151581526020016000151581525090565b508054614faf90615afc565b6000825580601f10614fc15750614fe0565b601f016020900490600052602060002090810190614fdf9190614fe3565b5b50565b5b80821115614ffc576000816000905550600101614fe4565b5090565b6000604051905090565b600080fd5b600080fd5b600080fd5b6000601f19601f8301169050919050565b7f4e487b7100000000000000000000000000000000000000000000000000000000600052604160045260246000fd5b61506282615019565b810181811067ffffffffffffffff821117156150815761508061502a565b5b80604052505050565b6000615094615000565b90506150a08282615059565b919050565b600080fd5b600073ffffffffffffffffffffffffffffffffffffffff82169050919050565b60006150d5826150aa565b9050919050565b6150e5816150ca565b81146150f057600080fd5b50565b600081359050615102816150dc565b92915050565b6000819050919050565b61511b81615108565b811461512657600080fd5b50565b60008135905061513881615112565b92915050565b60008115159050919050565b6151538161513e565b811461515e57600080fd5b50565b6000813590506151708161514a565b92915050565b600060c0828403121561518c5761518b615014565b5b61519660c061508a565b905060006151a6848285016150f3565b60008301525060206151ba84828501615129565b60208301525060406151ce848285016150f3565b60408301525060606151e284828501615129565b60608301525060806151f684828501615161565b60808301525060a061520a84828501615161565b60a08301525092915050565b600060c0828403121561522c5761522b61500a565b5b600061523a84828501615176565b91505092915050565b6000602082840312156152595761525861500a565b5b6000615267848285016150f3565b91505092915050565b600081519050919050565b600082825260208201905092915050565b6000819050602082019050919050565b600081519050919050565b600082825260208201905092915050565b60005b838110156152d65780820151818401526020810190506152bb565b838111156152e5576000848401525b50505050565b60006152f68261529c565b61530081856152a7565b93506153108185602086016152b8565b61531981615019565b840191505092915050565b600061533083836152eb565b905092915050565b6000602082019050919050565b600061535082615270565b61535a818561527b565b93508360208202850161536c8561528c565b8060005b858110156153a857848403895281516153898582615324565b945061539483615338565b925060208a01995050600181019050615370565b50829750879550505050505092915050565b600060208201905081810360008301526153d48184615345565b905092915050565b600080fd5b600080fd5b600067ffffffffffffffff8211156154015761540061502a565b5b61540a82615019565b9050602081019050919050565b82818337600083830152505050565b6000615439615434846153e6565b61508a565b905082815260208101848484011115615455576154546153e1565b5b615460848285615417565b509392505050565b600082601f83011261547d5761547c6153dc565b5b813561548d848260208601615426565b91505092915050565b6000602082840312156154ac576154ab61500a565b5b600082013567ffffffffffffffff8111156154ca576154c961500f565b5b6154d684828501615468565b91505092915050565b600081519050919050565b600082825260208201905092915050565b6000819050602082019050919050565b61551481615108565b82525050565b6000615526838361550b565b60208301905092915050565b6000602082019050919050565b600061554a826154df565b61555481856154ea565b935061555f836154fb565b8060005b83811015615590578151615577888261551a565b975061558283615532565b925050600181019050615563565b5085935050505092915050565b600060208201905081810360008301526155b7818461553f565b905092915050565b600080604083850312156155d6576155d561500a565b5b60006155e4858286016150f3565b925050602083013567ffffffffffffffff8111156156055761560461500f565b5b61561185828601615468565b9150509250929050565b600081519050919050565b600082825260208201905092915050565b6000819050602082019050919050565b615650816150ca565b82525050565b61565f8161513e565b82525050565b60c08201600082015161567b6000850182615647565b50602082015161568e602085018261550b565b5060408201516156a16040850182615647565b5060608201516156b4606085018261550b565b5060808201516156c76080850182615656565b5060a08201516156da60a0850182615656565b50505050565b60006156ec8383615665565b60c08301905092915050565b6000602082019050919050565b60006157108261561b565b61571a8185615626565b935061572583615637565b8060005b8381101561575657815161573d88826156e0565b9750615748836156f8565b925050600181019050615729565b5085935050505092915050565b6000602082019050818103600083015261577d8184615705565b905092915050565b61578e81615108565b82525050565b60006020820190506157a96000830184615785565b92915050565b7f4e487b7100000000000000000000000000000000000000000000000000000000600052601160045260246000fd5b60006157e982615108565b91506157f483615108565b9250827fffffffffffffffffffffffffffffffffffffffffffffffffffffffffffffffff03821115615829576158286157af565b5b828201905092915050565b600081519050615843816150dc565b92915050565b60006020828403121561585f5761585e61500a565b5b600061586d84828501615834565b91505092915050565b600060408201905061588b6000830185615785565b6158986020830184615785565b9392505050565b60006158b26158ad846153e6565b61508a565b9050828152602081018484840111156158ce576158cd6153e1565b5b6158d98482856152b8565b509392505050565b600082601f8301126158f6576158f56153dc565b5b815161590684826020860161589f565b91505092915050565b60008151905061591e81615112565b92915050565b6000815190506159338161514a565b92915050565b600060a0828403121561594f5761594e615014565b5b61595960a061508a565b9050600082015167ffffffffffffffff811115615979576159786150a5565b5b615985848285016158e1565b60008301525060206159998482850161590f565b60208301525060406159ad8482850161590f565b60408301525060606159c184828501615924565b60608301525060806159d58482850161590f565b60808301525092915050565b6000602082840312156159f7576159f661500a565b5b600082015167ffffffffffffffff811115615a1557615a1461500f565b5b615a2184828501615939565b91505092915050565b600082825260208201905092915050565b7f4f6e65206f7220626f74682076616c75657320617265206e6f74206c6f636b6560008201527f64206166746572207377617028292063616c6c2e000000000000000000000000602082015250565b6000615a97603483615a2a565b9150615aa282615a3b565b604082019050919050565b60006020820190508181036000830152615ac681615a8a565b9050919050565b7f4e487b7100000000000000000000000000000000000000000000000000000000600052602260045260246000fd5b60006002820490506001821680615b1457607f821691505b60208210811415615b2857615b27615acd565b5b50919050565b7f557365722073686f756c64206e6f74206265207265676973746572656420796560008201527f742e000000000000000000000000000000000000000000000000000000000000602082015250565b6000615b8a602283615a2a565b9150615b9582615b2e565b604082019050919050565b60006020820190508181036000830152615bb981615b7d565b9050919050565b7f4e487b7100000000000000000000000000000000000000000000000000000000600052603260045260246000fd5b6000615bfa82615108565b91507fffffffffffffffffffffffffffffffffffffffffffffffffffffffffffffffff821415615c2d57615c2c6157af565b5b600182019050919050565b7f5468657265206973206e6f204d61746368206f626a656374207768696368206960008201527f7320657175616c20746f207468652070617373656420696e707574207061726160208201527f6d657465722e0000000000000000000000000000000000000000000000000000604082015250565b6000615cba604683615a2a565b9150615cc582615c38565b606082019050919050565b60006020820190508181036000830152615ce981615cad565b9050919050565b615cf9816150ca565b82525050565b6000604082019050615d146000830185615cf0565b615d216020830184615cf0565b9392505050565b600060208284031215615d3e57615d3d61500a565b5b6000615d4c84828501615924565b91505092915050565b7f53776170436861696e2073686f756c6420626520616c6c6f77656420746f207460008201527f72616e7366657220746f6b656e7320627920424f54482075736572732e20506c60208201527f6561736520636f6e6669726d20626f746820757365727320696e206d6174636860408201527f206861732063616c6c205377617056616c75652e617070726f7665287377617060608201527f436861696e436f6e747261637441646472657373292e00000000000000000000608082015250565b6000615e23609683615a2a565b9150615e2e82615d55565b60a082019050919050565b60006020820190508181036000830152615e5281615e16565b9050919050565b7f43616c6c65722073686f756c6420626520616e206f6e65206f6620746865207560008201527f7365727320646566696e656420696e2074686520706173736564206d6174636860208201527f206f626a6563742e000000000000000000000000000000000000000000000000604082015250565b6000615edb604883615a2a565b9150615ee682615e59565b606082019050919050565b60006020820190508181036000830152615f0a81615ece565b9050919050565b7f43757272656e742074696d652073686f756c64206e6f7420657863656564207460008201527f696d65206f662076616c7565277320686173206265656e206c6f636b65642e00602082015250565b6000615f6d603f83615a2a565b9150615f7882615f11565b604082019050919050565b60006020820190508181036000830152615f9c81615f60565b9050919050565b7f4d6174636820686173206e6f74206265656e20617070726f766564206279206660008201527f6972737420757365720000000000000000000000000000000000000000000000602082015250565b6000615fff602983615a2a565b915061600a82615fa3565b604082019050919050565b6000602082019050818103600083015261602e81615ff2565b9050919050565b7f4d6174636820686173206e6f74206265656e20617070726f766564206279207360008201527f65636f6e64207573657200000000000000000000000000000000000000000000602082015250565b6000616091602a83615a2a565b915061609c82616035565b604082019050919050565b600060208201905081810360008301526160c081616084565b9050919050565b60006060820190506160dc6000830186615cf0565b6160e96020830185615cf0565b6160f66040830184615785565b949350505050565b600081905092915050565b60006161148261529c565b61611e81856160fe565b935061612e8185602086016152b8565b80840191505092915050565b60006161468284616109565b915081905092915050565b7f546869732075736572206861736e2774206265656e207265676973746572656460008201527f20796574206f7220646f6573206e6f74206d65657420776974682063616c6c6560208201527f722e000000000000000000000000000000000000000000000000000000000000604082015250565b60006161d3604283615a2a565b91506161de82616151565b606082019050919050565b60006020820190508181036000830152616202816161c6565b9050919050565b60006162148261529c565b61621e8185615a2a565b935061622e8185602086016152b8565b61623781615019565b840191505092915050565b6000604082019050818103600083015261625c8185616209565b905081810360208301526162708184616209565b90509392505050565b7f546869732070616972203c757365722c2064656d616e643e20616c726561647960008201527f2065786973742e00000000000000000000000000000000000000000000000000602082015250565b60006162d5602783615a2a565b91506162e082616279565b604082019050919050565b60006020820190508181036000830152616304816162c8565b9050919050565b7f557365722073686f756c6420626520726567697374657265642066697273742060008201527f746f2076696577206d6174636865732e00000000000000000000000000000000602082015250565b6000616367603083615a2a565b91506163728261630b565b604082019050919050565b600060208201905081810360008301526163968161635a565b9050919050565b7f557365722073686f756c642068617665206174206c65617374206f6e6520726560008201527f67697374657265642064656d616e642e00000000000000000000000000000000602082015250565b60006163f9603083615a2a565b91506164048261639d565b604082019050919050565b60006020820190508181036000830152616428816163ec565b9050919050565b60006020820190506164446000830184615cf0565b92915050565b600067ffffffffffffffff8211156164655761646461502a565b5b602082029050602081019050919050565b600080fd5b600061648e6164898461644a565b61508a565b905080838252602082019050602084028301858111156164b1576164b0616476565b5b835b818110156164da57806164c6888261590f565b8452602084019350506020810190506164b3565b5050509392505050565b600082601f8301126164f9576164f86153dc565b5b815161650984826020860161647b565b91505092915050565b6000602082840312156165285761652761500a565b5b600082015167ffffffffffffffff8111156165465761654561500f565b5b616552848285016164e4565b91505092915050565b60c0820160008201516165716000850182615647565b506020820151616584602085018261550b565b5060408201516165976040850182615647565b5060608201516165aa606085018261550b565b5060808201516165bd6080850182615656565b5060a08201516165d060a0850182615656565b50505050565b600060c0820190506165eb600083018461655b565b92915050565b600067ffffffffffffffff82111561660c5761660b61502a565b5b602082029050602081019050919050565b600060c0828403121561663357616632615014565b5b61663d60c061508a565b9050600061664d84828501615834565b60008301525060206166618482850161590f565b602083015250604061667584828501615834565b60408301525060606166898482850161590f565b606083015250608061669d84828501615924565b60808301525060a06166b184828501615924565b60a08301525092915050565b60006166d06166cb846165f1565b61508a565b90508083825260208201905060c084028301858111156166f3576166f2616476565b5b835b8181101561671c5780616708888261661d565b84526020840193505060c0810190506166f5565b5050509392505050565b600082601f83011261673b5761673a6153dc565b5b815161674b8482602086016166bd565b91505092915050565b60006020828403121561676a5761676961500a565b5b600082015167ffffffffffffffff8111156167885761678761500f565b5b61679484828501616726565b91505092915050565b600060208201905081810360008301526167b78184616209565b905092915050565b600060408201905081810360008301526167d98185616209565b90506167e86020830184615785565b9392505050565b7f43616c6c65722064656d616e642073686f756c64206d617463686573206f666660008201527f6572207768696368206973206f627461696e6564206f766572205f696e64657860208201527f4e66742e00000000000000000000000000000000000000000000000000000000604082015250565b6000616871604483615a2a565b915061687c826167ef565b606082019050919050565b600060208201905081810360008301526168a081616864565b9050919050565b600060408201905081810360008301526168c18185616209565b90506168d06020830184615cf0565b9392505050565b60006168e282615108565b91506168ed83615108565b925082821015616900576168ff6157af565b5b828203905092915050565b7f4e487b7100000000000000000000000000000000000000000000000000000000600052603160045260246000fdfea2646970667358221220ca660feda12530c0732901145f2d0292913464a24052daa4a5cc1c0668f134f564736f6c63430008090033",
   "linkReferences": {},
   "deployedLinkReferences": {}
}